:060000000A128A11FC2F18
:100F7E0083160313880183120313880108147F302C
:100F8E00F200D430F1003130F000F00BCC2FF10B29
:100F9E00CC2FF20BCC2FD32F8312031308108814EF
:100FAE007F30F200D430F1003130F000F00BDD2F45
:100FBE00F10BDD2FF20BDD2FE42F831203138810BC
:100FCE0088157F30F200D430F1003130F000F00B94
:100FDE00EE2FF10BEE2FF20BEE2FF52F83120313E4
:100FEE008811C52F0A128A11002883010A128A114C
:020FFE00BF2F03
:02400E00BA3FB7
:00000001FF
